{
  "_format": "hh-sol-artifact-1",
  "contractName": "BorrowYourCar",
  "sourceName": "contracts/BorrowYourCar.sol",
  "abi": [
    {
      "inputs": [],
      "stateMutability": "nonpayable",
      "type": "constructor"
    },
    {
      "inputs": [
        {
          "internalType": "address",
          "name": "sender",
          "type": "address"
        },
        {
          "internalType": "uint256",
          "name": "tokenId",
          "type": "uint256"
        },
        {
          "internalType": "address",
          "name": "owner",
          "type": "address"
        }
      ],
      "name": "ERC721IncorrectOwner",
      "type": "error"
    },
    {
      "inputs": [
        {
          "internalType": "address",
          "name": "operator",
          "type": "address"
        },
        {
          "internalType": "uint256",
          "name": "tokenId",
          "type": "uint256"
        }
      ],
      "name": "ERC721InsufficientApproval",
      "type": "error"
    },
    {
      "inputs": [
        {
          "internalType": "address",
          "name": "approver",
          "type": "address"
        }
      ],
      "name": "ERC721InvalidApprover",
      "type": "error"
    },
    {
      "inputs": [
        {
          "internalType": "address",
          "name": "operator",
          "type": "address"
        }
      ],
      "name": "ERC721InvalidOperator",
      "type": "error"
    },
    {
      "inputs": [
        {
          "internalType": "address",
          "name": "owner",
          "type": "address"
        }
      ],
      "name": "ERC721InvalidOwner",
      "type": "error"
    },
    {
      "inputs": [
        {
          "internalType": "address",
          "name": "receiver",
          "type": "address"
        }
      ],
      "name": "ERC721InvalidReceiver",
      "type": "error"
    },
    {
      "inputs": [
        {
          "internalType": "address",
          "name": "sender",
          "type": "address"
        }
      ],
      "name": "ERC721InvalidSender",
      "type": "error"
    },
    {
      "inputs": [
        {
          "internalType": "uint256",
          "name": "tokenId",
          "type": "uint256"
        }
      ],
      "name": "ERC721NonexistentToken",
      "type": "error"
    },
    {
      "anonymous": false,
      "inputs": [
        {
          "indexed": true,
          "internalType": "address",
          "name": "owner",
          "type": "address"
        },
        {
          "indexed": true,
          "internalType": "address",
          "name": "approved",
          "type": "address"
        },
        {
          "indexed": true,
          "internalType": "uint256",
          "name": "tokenId",
          "type": "uint256"
        }
      ],
      "name": "Approval",
      "type": "event"
    },
    {
      "anonymous": false,
      "inputs": [
        {
          "indexed": true,
          "internalType": "address",
          "name": "owner",
          "type": "address"
        },
        {
          "indexed": true,
          "internalType": "address",
          "name": "operator",
          "type": "address"
        },
        {
          "indexed": false,
          "internalType": "bool",
          "name": "approved",
          "type": "bool"
        }
      ],
      "name": "ApprovalForAll",
      "type": "event"
    },
    {
      "anonymous": false,
      "inputs": [
        {
          "indexed": false,
          "internalType": "uint256",
          "name": "carTokenId",
          "type": "uint256"
        },
        {
          "indexed": false,
          "internalType": "address",
          "name": "borrower",
          "type": "address"
        },
        {
          "indexed": false,
          "internalType": "uint256",
          "name": "startTime",
          "type": "uint256"
        },
        {
          "indexed": false,
          "internalType": "uint256",
          "name": "duration",
          "type": "uint256"
        }
      ],
      "name": "CarBorrowed",
      "type": "event"
    },
    {
      "anonymous": false,
      "inputs": [
        {
          "indexed": false,
          "internalType": "uint256[]",
          "name": "",
          "type": "uint256[]"
        }
      ],
      "name": "GetCarBorrowed",
      "type": "event"
    },
    {
      "anonymous": false,
      "inputs": [
        {
          "indexed": false,
          "internalType": "uint256[]",
          "name": "",
          "type": "uint256[]"
        }
      ],
      "name": "GetCarOwned",
      "type": "event"
    },
    {
      "anonymous": false,
      "inputs": [
        {
          "indexed": false,
          "internalType": "uint256",
          "name": "carTokenId",
          "type": "uint256"
        }
      ],
      "name": "MintToken",
      "type": "event"
    },
    {
      "anonymous": false,
      "inputs": [
        {
          "indexed": true,
          "internalType": "address",
          "name": "from",
          "type": "address"
        },
        {
          "indexed": true,
          "internalType": "address",
          "name": "to",
          "type": "address"
        },
        {
          "indexed": true,
          "internalType": "uint256",
          "name": "tokenId",
          "type": "uint256"
        }
      ],
      "name": "Transfer",
      "type": "event"
    },
    {
      "anonymous": false,
      "inputs": [
        {
          "indexed": true,
          "internalType": "uint256",
          "name": "tokenId",
          "type": "uint256"
        },
        {
          "indexed": true,
          "internalType": "address",
          "name": "user",
          "type": "address"
        },
        {
          "indexed": false,
          "internalType": "uint64",
          "name": "expires",
          "type": "uint64"
        }
      ],
      "name": "UpdateUser",
      "type": "event"
    },
    {
      "inputs": [
        {
          "internalType": "address",
          "name": "to",
          "type": "address"
        },
        {
          "internalType": "uint256",
          "name": "tokenId",
          "type": "uint256"
        }
      ],
      "name": "approve",
      "outputs": [],
      "stateMutability": "nonpayable",
      "type": "function"
    },
    {
      "inputs": [
        {
          "internalType": "address",
          "name": "owner",
          "type": "address"
        }
      ],
      "name": "balanceOf",
      "outputs": [
        {
          "internalType": "uint256",
          "name": "",
          "type": "uint256"
        }
      ],
      "stateMutability": "view",
      "type": "function"
    },
    {
      "inputs": [
        {
          "internalType": "uint256",
          "name": "tokenId",
          "type": "uint256"
        },
        {
          "internalType": "uint256",
          "name": "_minutes",
          "type": "uint256"
        }
      ],
      "name": "borrowCar",
      "outputs": [],
      "stateMutability": "nonpayable",
      "type": "function"
    },
    {
      "inputs": [
        {
          "internalType": "uint256",
          "name": "",
          "type": "uint256"
        }
      ],
      "name": "cars",
      "outputs": [
        {
          "internalType": "address",
          "name": "owner",
          "type": "address"
        },
        {
          "internalType": "address",
          "name": "borrower",
          "type": "address"
        },
        {
          "internalType": "uint256",
          "name": "borrowUntil",
          "type": "uint256"
        }
      ],
      "stateMutability": "view",
      "type": "function"
    },
    {
      "inputs": [
        {
          "internalType": "uint256",
          "name": "tokenId",
          "type": "uint256"
        }
      ],
      "name": "getApproved",
      "outputs": [
        {
          "internalType": "address",
          "name": "",
          "type": "address"
        }
      ],
      "stateMutability": "view",
      "type": "function"
    },
    {
      "inputs": [],
      "name": "getCarOwned",
      "outputs": [
        {
          "internalType": "uint256[]",
          "name": "carsOwned",
          "type": "uint256[]"
        }
      ],
      "stateMutability": "nonpayable",
      "type": "function"
    },
    {
      "inputs": [
        {
          "internalType": "uint256",
          "name": "tokenId",
          "type": "uint256"
        }
      ],
      "name": "getCarOwner",
      "outputs": [
        {
          "internalType": "address",
          "name": "owner",
          "type": "address"
        }
      ],
      "stateMutability": "view",
      "type": "function"
    },
    {
      "inputs": [
        {
          "internalType": "uint256",
          "name": "tokenId",
          "type": "uint256"
        }
      ],
      "name": "getCarUser",
      "outputs": [
        {
          "internalType": "address",
          "name": "user",
          "type": "address"
        }
      ],
      "stateMutability": "view",
      "type": "function"
    },
    {
      "inputs": [],
      "name": "getCostPerMinute",
      "outputs": [
        {
          "internalType": "uint256",
          "name": "price",
          "type": "uint256"
        }
      ],
      "stateMutability": "view",
      "type": "function"
    },
    {
      "inputs": [],
      "name": "getCostPerToken",
      "outputs": [
        {
          "internalType": "uint256",
          "name": "price",
          "type": "uint256"
        }
      ],
      "stateMutability": "view",
      "type": "function"
    },
    {
      "inputs": [],
      "name": "getUnborrowedCar",
      "outputs": [
        {
          "internalType": "uint256[]",
          "name": "unBorrowedCars",
          "type": "uint256[]"
        }
      ],
      "stateMutability": "nonpayable",
      "type": "function"
    },
    {
      "inputs": [
        {
          "internalType": "address",
          "name": "owner",
          "type": "address"
        },
        {
          "internalType": "address",
          "name": "operator",
          "type": "address"
        }
      ],
      "name": "isApprovedForAll",
      "outputs": [
        {
          "internalType": "bool",
          "name": "",
          "type": "bool"
        }
      ],
      "stateMutability": "view",
      "type": "function"
    },
    {
      "inputs": [
        {
          "internalType": "uint256",
          "name": "tokenId",
          "type": "uint256"
        },
        {
          "internalType": "address",
          "name": "to",
          "type": "address"
        }
      ],
      "name": "mint",
      "outputs": [],
      "stateMutability": "nonpayable",
      "type": "function"
    },
    {
      "inputs": [],
      "name": "mintWithEther",
      "outputs": [],
      "stateMutability": "payable",
      "type": "function"
    },
    {
      "inputs": [],
      "name": "myERC20",
      "outputs": [
        {
          "internalType": "contract MyERC20",
          "name": "",
          "type": "address"
        }
      ],
      "stateMutability": "view",
      "type": "function"
    },
    {
      "inputs": [],
      "name": "name",
      "outputs": [
        {
          "internalType": "string",
          "name": "",
          "type": "string"
        }
      ],
      "stateMutability": "view",
      "type": "function"
    },
    {
      "inputs": [
        {
          "internalType": "uint256",
          "name": "tokenId",
          "type": "uint256"
        }
      ],
      "name": "ownerOf",
      "outputs": [
        {
          "internalType": "address",
          "name": "",
          "type": "address"
        }
      ],
      "stateMutability": "view",
      "type": "function"
    },
    {
      "inputs": [
        {
          "internalType": "address",
          "name": "from",
          "type": "address"
        },
        {
          "internalType": "address",
          "name": "to",
          "type": "address"
        },
        {
          "internalType": "uint256",
          "name": "tokenId",
          "type": "uint256"
        }
      ],
      "name": "safeTransferFrom",
      "outputs": [],
      "stateMutability": "nonpayable",
      "type": "function"
    },
    {
      "inputs": [
        {
          "internalType": "address",
          "name": "from",
          "type": "address"
        },
        {
          "internalType": "address",
          "name": "to",
          "type": "address"
        },
        {
          "internalType": "uint256",
          "name": "tokenId",
          "type": "uint256"
        },
        {
          "internalType": "bytes",
          "name": "data",
          "type": "bytes"
        }
      ],
      "name": "safeTransferFrom",
      "outputs": [],
      "stateMutability": "nonpayable",
      "type": "function"
    },
    {
      "inputs": [
        {
          "internalType": "address",
          "name": "operator",
          "type": "address"
        },
        {
          "internalType": "bool",
          "name": "approved",
          "type": "bool"
        }
      ],
      "name": "setApprovalForAll",
      "outputs": [],
      "stateMutability": "nonpayable",
      "type": "function"
    },
    {
      "inputs": [
        {
          "internalType": "uint256",
          "name": "tokenId",
          "type": "uint256"
        },
        {
          "internalType": "address",
          "name": "user",
          "type": "address"
        },
        {
          "internalType": "uint64",
          "name": "expires",
          "type": "uint64"
        }
      ],
      "name": "setUser",
      "outputs": [],
      "stateMutability": "nonpayable",
      "type": "function"
    },
    {
      "inputs": [
        {
          "internalType": "bytes4",
          "name": "interfaceId",
          "type": "bytes4"
        }
      ],
      "name": "supportsInterface",
      "outputs": [
        {
          "internalType": "bool",
          "name": "",
          "type": "bool"
        }
      ],
      "stateMutability": "view",
      "type": "function"
    },
    {
      "inputs": [],
      "name": "symbol",
      "outputs": [
        {
          "internalType": "string",
          "name": "",
          "type": "string"
        }
      ],
      "stateMutability": "view",
      "type": "function"
    },
    {
      "inputs": [
        {
          "internalType": "uint256",
          "name": "tokenId",
          "type": "uint256"
        }
      ],
      "name": "tokenURI",
      "outputs": [
        {
          "internalType": "string",
          "name": "",
          "type": "string"
        }
      ],
      "stateMutability": "view",
      "type": "function"
    },
    {
      "inputs": [
        {
          "internalType": "address",
          "name": "from",
          "type": "address"
        },
        {
          "internalType": "address",
          "name": "to",
          "type": "address"
        },
        {
          "internalType": "uint256",
          "name": "tokenId",
          "type": "uint256"
        }
      ],
      "name": "transferFrom",
      "outputs": [],
      "stateMutability": "nonpayable",
      "type": "function"
    },
    {
      "inputs": [
        {
          "internalType": "uint256",
          "name": "tokenId",
          "type": "uint256"
        }
      ],
      "name": "userExpires",
      "outputs": [
        {
          "internalType": "uint256",
          "name": "",
          "type": "uint256"
        }
      ],
      "stateMutability": "view",
      "type": "function"
    },
    {
      "inputs": [
        {
          "internalType": "uint256",
          "name": "tokenId",
          "type": "uint256"
        }
      ],
      "name": "userOf",
      "outputs": [
        {
          "internalType": "address",
          "name": "",
          "type": "address"
        }
      ],
      "stateMutability": "view",
      "type": "function"
    }
  ],
  "bytecode": "0x60806040526000600955662386f26fc10000600a556001600b553480156200002657600080fd5b506040518060400160405280601281526020017f5a584e6f6e46756e6769626c65546f6b656e00000000000000000000000000008152506040518060400160405280601881526020017f5a584e6f6e46756e6769626c65546f6b656e53796d626f6c000000000000000081525081818160009081620000a6919062000403565b508060019081620000b8919062000403565b5050505050604051620000cb906200017b565b620000d6906200059b565b604051809103906000f080158015620000f3573d6000803e3d6000fd5b50600d60006101000a81548173ffffffffffffffffffffffffffffffffffffffff021916908373ffffffffffffffffffffffffffffffffffffffff16021790555033600c60006101000a81548173ffffffffffffffffffffffffffffffffffffffff021916908373ffffffffffffffffffffffffffffffffffffffff160217905550620005d2565b61163980620037f983390190565b600081519050919050565b7f4e487b7100000000000000000000000000000000000000000000000000000000600052604160045260246000fd5b7f4e487b7100000000000000000000000000000000000000000000000000000000600052602260045260246000fd5b600060028204905060018216806200020b57607f821691505b602082108103620002215762000220620001c3565b5b50919050565b60008190508160005260206000209050919050565b60006020601f8301049050919050565b600082821b905092915050565b6000600883026200028b7fffffffffffffffffffffffffffffffffffffffffffffffffffffffffffffffff826200024c565b6200029786836200024c565b95508019841693508086168417925050509392505050565b6000819050919050565b6000819050919050565b6000620002e4620002de620002d884620002af565b620002b9565b620002af565b9050919050565b6000819050919050565b6200030083620002c3565b620003186200030f82620002eb565b84845462000259565b825550505050565b600090565b6200032f62000320565b6200033c818484620002f5565b505050565b5b8181101562000364576200035860008262000325565b60018101905062000342565b5050565b601f821115620003b3576200037d8162000227565b62000388846200023c565b8101602085101562000398578190505b620003b0620003a7856200023c565b83018262000341565b50505b505050565b600082821c905092915050565b6000620003d860001984600802620003b8565b1980831691505092915050565b6000620003f38383620003c5565b9150826002028217905092915050565b6200040e8262000189565b67ffffffffffffffff8111156200042a576200042962000194565b5b620004368254620001f2565b6200044382828562000368565b600060209050601f8311600181146200047b576000841562000466578287015190505b620004728582620003e5565b865550620004e2565b601f1984166200048b8662000227565b60005b82811015620004b5578489015182556001820191506020850194506020810190506200048e565b86831015620004d55784890151620004d1601f891682620003c5565b8355505b6001600288020188555050505b505050505050565b600082825260208201905092915050565b7f5a58546f6b656e00000000000000000000000000000000000000000000000000600082015250565b600062000533600783620004ea565b91506200054082620004fb565b602082019050919050565b7f5a58546f6b656e53796d626f6c00000000000000000000000000000000000000600082015250565b600062000583600d83620004ea565b915062000590826200054b565b602082019050919050565b60006040820190508181036000830152620005b68162000524565b90508181036020830152620005cb8162000574565b9050919050565b61321780620005e26000396000f3fe60806040526004361061019c5760003560e01c806378670971116100ec578063c2f1f14a1161008a578063e030565e11610064578063e030565e146105f3578063e865af041461061c578063e985e9c514610645578063f7746e36146106825761019c565b8063c2f1f14a1461053c578063c3c7059114610579578063c87b56dd146105b65761019c565b806395d89b41116100c657806395d89b41146104b5578063a22cb465146104e0578063b88d4fde14610509578063bc4d2797146105325761019c565b806378670971146104245780638fc88c481461044f57806394bf804d1461048c5761019c565b806325eea112116101595780636352211e116101335780636352211e1461035457806369e8688e146103915780636d3739c4146103bc57806370a08231146103e75761019c565b806325eea112146102c357806342842e0e146102ee5780634732c0a9146103175761019c565b806301ffc9a7146101a157806306fdde03146101de578063081812fc14610209578063095ea7b31461024657806321b81df91461026f57806323b872dd1461029a575b600080fd5b3480156101ad57600080fd5b506101c860048036038101906101c3919061246a565b6106c1565b6040516101d591906124b2565b60405180910390f35b3480156101ea57600080fd5b506101f361073b565b604051610200919061255d565b60405180910390f35b34801561021557600080fd5b50610230600480360381019061022b91906125b5565b6107cd565b60405161023d9190612623565b60405180910390f35b34801561025257600080fd5b5061026d6004803603810190610268919061266a565b6107e9565b005b34801561027b57600080fd5b506102846107ff565b60405161029191906126b9565b60405180910390f35b3480156102a657600080fd5b506102c160048036038101906102bc91906126d4565b610809565b005b3480156102cf57600080fd5b506102d861090b565b6040516102e591906127e5565b60405180910390f35b3480156102fa57600080fd5b50610315600480360381019061031091906126d4565b610993565b005b34801561032357600080fd5b5061033e600480360381019061033991906125b5565b6109b3565b60405161034b9190612623565b60405180910390f35b34801561036057600080fd5b5061037b600480360381019061037691906125b5565b610a09565b6040516103889190612623565b60405180910390f35b34801561039d57600080fd5b506103a6610a1b565b6040516103b391906126b9565b60405180910390f35b3480156103c857600080fd5b506103d1610a25565b6040516103de9190612866565b60405180910390f35b3480156103f357600080fd5b5061040e60048036038101906104099190612881565b610a4b565b60405161041b91906126b9565b60405180910390f35b34801561043057600080fd5b50610439610b05565b60405161044691906127e5565b60405180910390f35b34801561045b57600080fd5b50610476600480360381019061047191906125b5565b610bd1565b60405161048391906126b9565b60405180910390f35b34801561049857600080fd5b506104b360048036038101906104ae91906128ae565b610c0f565b005b3480156104c157600080fd5b506104ca610c1d565b6040516104d7919061255d565b60405180910390f35b3480156104ec57600080fd5b506105076004803603810190610502919061291a565b610caf565b005b34801561051557600080fd5b50610530600480360381019061052b9190612a8f565b610cc5565b005b61053a610ce2565b005b34801561054857600080fd5b50610563600480360381019061055e91906125b5565b610ecd565b6040516105709190612623565b60405180910390f35b34801561058557600080fd5b506105a0600480360381019061059b91906125b5565b610f52565b6040516105ad9190612623565b60405180910390f35b3480156105c257600080fd5b506105dd60048036038101906105d891906125b5565b610fa8565b6040516105ea919061255d565b60405180910390f35b3480156105ff57600080fd5b5061061a60048036038101906106159190612b52565b611011565b005b34801561062857600080fd5b50610643600480360381019061063e9190612ba5565b6110eb565b005b34801561065157600080fd5b5061066c60048036038101906106679190612be5565b6113fc565b60405161067991906124b2565b60405180910390f35b34801561068e57600080fd5b506106a960048036038101906106a491906125b5565b611490565b6040516106b893929190612c25565b60405180910390f35b60007fad092b5c000000000000000000000000000000000000000000000000000000007bffffffffffffffffffffffffffffffffffffffffffffffffffffffff1916827bffffffffffffffffffffffffffffffffffffffffffffffffffffffff191614806107345750610733826114fa565b5b9050919050565b60606000805461074a90612c8b565b80601f016020809104026020016040519081016040528092919081815260200182805461077690612c8b565b80156107c35780601f10610798576101008083540402835291602001916107c3565b820191906000526020600020905b8154815290600101906020018083116107a657829003601f168201915b5050505050905090565b60006107d8826115dc565b506107e282611664565b9050919050565b6107fb82826107f66116a1565b6116a9565b5050565b6000600b54905090565b600073ffffffffffffffffffffffffffffffffffffffff168273ffffffffffffffffffffffffffffffffffffffff160361087b5760006040517f64a0ae920000000000000000000000000000000000000000000000000000000081526004016108729190612623565b60405180910390fd5b600061088f838361088a6116a1565b6116bb565b90508373ffffffffffffffffffffffffffffffffffffffff168173ffffffffffffffffffffffffffffffffffffffff1614610905578382826040517f64283d7b0000000000000000000000000000000000000000000000000000000081526004016108fc93929190612cbc565b60405180910390fd5b50505050565b606060005b6009548110156109585760076000828152602001908152602001600020600201544211156109455761094282826118d5565b91505b808061095090612d22565b915050610910565b507f8e7afa6cd18a7efcba34b51c8d4c1364bbaff88ea11a74f1ff1f42925303fbdb8160405161098891906127e5565b60405180910390a190565b6109ae83838360405180602001604052806000815250610cc5565b505050565b600060095482106109f9576040517f08c379a00000000000000000000000000000000000000000000000000000000081526004016109f090612db6565b60405180910390fd5b610a0282610ecd565b9050919050565b6000610a14826115dc565b9050919050565b6000600a54905090565b600d60009054906101000a900473ffffffffffffffffffffffffffffffffffffffff1681565b60008073ffffffffffffffffffffffffffffffffffffffff168273ffffffffffffffffffffffffffffffffffffffff1603610abe5760006040517f89c62b64000000000000000000000000000000000000000000000000000000008152600401610ab59190612623565b60405180910390fd5b600360008373ffffffffffffffffffffffffffffffffffffffff1673ffffffffffffffffffffffffffffffffffffffff168152602001908152602001600020549050919050565b6060600860003373ffffffffffffffffffffffffffffffffffffffff1673ffffffffffffffffffffffffffffffffffffffff168152602001908152602001600020805480602002602001604051908101604052809291908181526020018280548015610b9057602002820191906000526020600020905b815481526020019060010190808311610b7c575b505050505090507f6532809c9fe7f29a1ab6831399889c22c1d5006e2fb913a5ea6197e31a784bb981604051610bc691906127e5565b60405180910390a190565b60006006600083815260200190815260200160002060000160149054906101000a900467ffffffffffffffff1667ffffffffffffffff169050919050565b610c1981836119b6565b5050565b606060018054610c2c90612c8b565b80601f0160208091040260200160405190810160405280929190818152602001828054610c5890612c8b565b8015610ca55780601f10610c7a57610100808354040283529160200191610ca5565b820191906000526020600020905b815481529060010190602001808311610c8857829003601f168201915b5050505050905090565b610cc1610cba6116a1565b8383611aaf565b5050565b610cd0848484610809565b610cdc84848484611c1e565b50505050565b600a54341015610d27576040517f08c379a0000000000000000000000000000000000000000000000000000000008152600401610d1e90612e22565b60405180910390fd5b610d3360095433610c0f565b3360076000600954815260200190815260200160002060000160006101000a81548173ffffffffffffffffffffffffffffffffffffffff021916908373ffffffffffffffffffffffffffffffffffffffff1602179055504260076000600954815260200190815260200160002060020181905550600860003373ffffffffffffffffffffffffffffffffffffffff1673ffffffffffffffffffffffffffffffffffffffff16815260200190815260200160002060095490806001815401808255809150506001900390600052602060002001600090919091909150557f05297781ec3be961005343c79526e11fa2c29f53380c82e2beafdd9372bd75be600954604051610e4091906126b9565b60405180910390a160096000815480929190610e5b90612d22565b9190505550600c60009054906101000a900473ffffffffffffffffffffffffffffffffffffffff1673ffffffffffffffffffffffffffffffffffffffff166108fc600a549081150290604051600060405180830381858888f19350505050158015610eca573d6000803e3d6000fd5b50565b6000426006600084815260200190815260200160002060000160149054906101000a900467ffffffffffffffff1667ffffffffffffffff1610610f48576006600083815260200190815260200160002060000160009054906101000a900473ffffffffffffffffffffffffffffffffffffffff169050610f4d565b600090505b919050565b60006009548210610f98576040517f08c379a0000000000000000000000000000000000000000000000000000000008152600401610f8f90612db6565b60405180910390fd5b610fa182610a09565b9050919050565b6060610fb3826115dc565b506000610fbe611dd5565b90506000815111610fde5760405180602001604052806000815250611009565b80610fe884611dec565b604051602001610ff9929190612e7e565b6040516020818303038152906040525b915050919050565b6000600660008581526020019081526020016000209050828160000160006101000a81548173ffffffffffffffffffffffffffffffffffffffff021916908373ffffffffffffffffffffffffffffffffffffffff160217905550818160000160146101000a81548167ffffffffffffffff021916908367ffffffffffffffff1602179055508273ffffffffffffffffffffffffffffffffffffffff16847f4e06b4e7000e659094299b3533b47b6aa8ad048e95e872d23d1f4ee55af89cfe846040516110dd9190612eb1565b60405180910390a350505050565b600954821061112f576040517f08c379a000000000000000000000000000000000000000000000000000000000815260040161112690612db6565b60405180910390fd5b60076000838152602001908152602001600020600201544211611187576040517f08c379a000000000000000000000000000000000000000000000000000000000815260040161117e90612f18565b60405180910390fd5b600042603c836111979190612f38565b6111a19190612f7a565b90506000600b54836111b39190612f38565b9050600d60009054906101000a900473ffffffffffffffffffffffffffffffffffffffff1673ffffffffffffffffffffffffffffffffffffffff166370a08231336040518263ffffffff1660e01b81526004016112109190612623565b602060405180830381865afa15801561122d573d6000803e3d6000fd5b505050506040513d601f19601f820116820180604052508101906112519190612fc3565b811115611293576040517f08c379a000000000000000000000000000000000000000000000000000000000815260040161128a90612e22565b60405180910390fd5b61129e843384611011565b816007600086815260200190815260200160002060020181905550336007600086815260200190815260200160002060010160006101000a81548173ffffffffffffffffffffffffffffffffffffffff021916908373ffffffffffffffffffffffffffffffffffffffff1602179055507f8879d78706834dc00d82232992f71250fab6a1f70b08260968253950083d88cd843342856040516113439493929190612ff0565b60405180910390a1600d60009054906101000a900473ffffffffffffffffffffffffffffffffffffffff1673ffffffffffffffffffffffffffffffffffffffff166323b872dd3361139387610a09565b846040518463ffffffff1660e01b81526004016113b293929190612c25565b6020604051808303816000875af11580156113d1573d6000803e3d6000fd5b505050506040513d601f19601f820116820180604052508101906113f5919061304a565b5050505050565b6000600560008473ffffffffffffffffffffffffffffffffffffffff1673ffffffffffffffffffffffffffffffffffffffff16815260200190815260200160002060008373ffffffffffffffffffffffffffffffffffffffff1673ffffffffffffffffffffffffffffffffffffffff16815260200190815260200160002060009054906101000a900460ff16905092915050565b60076020528060005260406000206000915090508060000160009054906101000a900473ffffffffffffffffffffffffffffffffffffffff16908060010160009054906101000a900473ffffffffffffffffffffffffffffffffffffffff16908060020154905083565b60007f80ac58cd000000000000000000000000000000000000000000000000000000007bffffffffffffffffffffffffffffffffffffffffffffffffffffffff1916827bffffffffffffffffffffffffffffffffffffffffffffffffffffffff191614806115c557507f5b5e139f000000000000000000000000000000000000000000000000000000007bffffffffffffffffffffffffffffffffffffffffffffffffffffffff1916827bffffffffffffffffffffffffffffffffffffffffffffffffffffffff1916145b806115d557506115d482611eba565b5b9050919050565b6000806115e883611f24565b9050600073ffffffffffffffffffffffffffffffffffffffff168173ffffffffffffffffffffffffffffffffffffffff160361165b57826040517f7e27328900000000000000000000000000000000000000000000000000000000815260040161165291906126b9565b60405180910390fd5b80915050919050565b60006004600083815260200190815260200160002060009054906101000a900473ffffffffffffffffffffffffffffffffffffffff169050919050565b600033905090565b6116b68383836001611f61565b505050565b6000806116c784611f24565b9050600073ffffffffffffffffffffffffffffffffffffffff168373ffffffffffffffffffffffffffffffffffffffff161461170957611708818486612126565b5b600073ffffffffffffffffffffffffffffffffffffffff168173ffffffffffffffffffffffffffffffffffffffff161461179a5761174b600085600080611f61565b6001600360008373ffffffffffffffffffffffffffffffffffffffff1673ffffffffffffffffffffffffffffffffffffffff168152602001908152602001600020600082825403925050819055505b600073ffffffffffffffffffffffffffffffffffffffff168573ffffffffffffffffffffffffffffffffffffffff161461181d576001600360008773ffffffffffffffffffffffffffffffffffffffff1673ffffffffffffffffffffffffffffffffffffffff168152602001908152602001600020600082825401925050819055505b846002600086815260200190815260200160002060006101000a81548173ffffffffffffffffffffffffffffffffffffffff021916908373ffffffffffffffffffffffffffffffffffffffff160217905550838573ffffffffffffffffffffffffffffffffffffffff168273ffffffffffffffffffffffffffffffffffffffff167fddf252ad1be2c89b69c2b068fc378daa952ba7f163c4a11628f55a4df523b3ef60405160405180910390a4809150509392505050565b60606000600184516118e79190612f7a565b67ffffffffffffffff811115611900576118ff612964565b5b60405190808252806020026020018201604052801561192e5781602001602082028036833780820191505090505b50905060005b845181101561198a578481815181106119505761194f613077565b5b602002602001015182828151811061196b5761196a613077565b5b602002602001018181525050808061198290612d22565b915050611934565b5082818551815181106119a05761199f613077565b5b6020026020010181815250508091505092915050565b600073ffffffffffffffffffffffffffffffffffffffff168273ffffffffffffffffffffffffffffffffffffffff1603611a285760006040517f64a0ae92000000000000000000000000000000000000000000000000000000008152600401611a1f9190612623565b60405180910390fd5b6000611a36838360006116bb565b9050600073ffffffffffffffffffffffffffffffffffffffff168173ffffffffffffffffffffffffffffffffffffffff1614611aaa5760006040517f73c6ac6e000000000000000000000000000000000000000000000000000000008152600401611aa19190612623565b60405180910390fd5b505050565b600073ffffffffffffffffffffffffffffffffffffffff168273ffffffffffffffffffffffffffffffffffffffff1603611b2057816040517f5b08ba18000000000000000000000000000000000000000000000000000000008152600401611b179190612623565b60405180910390fd5b80600560008573ffffffffffffffffffffffffffffffffffffffff1673ffffffffffffffffffffffffffffffffffffffff16815260200190815260200160002060008473ffffffffffffffffffffffffffffffffffffffff1673ffffffffffffffffffffffffffffffffffffffff16815260200190815260200160002060006101000a81548160ff0219169083151502179055508173ffffffffffffffffffffffffffffffffffffffff168373ffffffffffffffffffffffffffffffffffffffff167f17307eab39ab6107e8899845ad3d59bd9653f200f220920489ca2b5937696c3183604051611c1191906124b2565b60405180910390a3505050565b60008373ffffffffffffffffffffffffffffffffffffffff163b1115611dcf578273ffffffffffffffffffffffffffffffffffffffff1663150b7a02611c626116a1565b8685856040518563ffffffff1660e01b8152600401611c8494939291906130fb565b6020604051808303816000875af1925050508015611cc057506040513d601f19601f82011682018060405250810190611cbd919061315c565b60015b611d44573d8060008114611cf0576040519150601f19603f3d011682016040523d82523d6000602084013e611cf5565b606091505b506000815103611d3c57836040517f64a0ae92000000000000000000000000000000000000000000000000000000008152600401611d339190612623565b60405180910390fd5b805181602001fd5b63150b7a0260e01b7bffffffffffffffffffffffffffffffffffffffffffffffffffffffff1916817bffffffffffffffffffffffffffffffffffffffffffffffffffffffff191614611dcd57836040517f64a0ae92000000000000000000000000000000000000000000000000000000008152600401611dc49190612623565b60405180910390fd5b505b50505050565b606060405180602001604052806000815250905090565b606060006001611dfb846121ea565b01905060008167ffffffffffffffff811115611e1a57611e19612964565b5b6040519080825280601f01601f191660200182016040528015611e4c5781602001600182028036833780820191505090505b509050600082602001820190505b600115611eaf578080600190039150507f3031323334353637383961626364656600000000000000000000000000000000600a86061a8153600a8581611ea357611ea2613189565b5b04945060008503611e5a575b819350505050919050565b60007f01ffc9a7000000000000000000000000000000000000000000000000000000007bffffffffffffffffffffffffffffffffffffffffffffffffffffffff1916827bffffffffffffffffffffffffffffffffffffffffffffffffffffffff1916149050919050565b60006002600083815260200190815260200160002060009054906101000a900473ffffffffffffffffffffffffffffffffffffffff169050919050565b8080611f9a5750600073ffffffffffffffffffffffffffffffffffffffff168273ffffffffffffffffffffffffffffffffffffffff1614155b156120ce576000611faa846115dc565b9050600073ffffffffffffffffffffffffffffffffffffffff168373ffffffffffffffffffffffffffffffffffffffff161415801561201557508273ffffffffffffffffffffffffffffffffffffffff168173ffffffffffffffffffffffffffffffffffffffff1614155b8015612028575061202681846113fc565b155b1561206a57826040517fa9fbf51f0000000000000000000000000000000000000000000000000000000081526004016120619190612623565b60405180910390fd5b81156120cc57838573ffffffffffffffffffffffffffffffffffffffff168273ffffffffffffffffffffffffffffffffffffffff167f8c5be1e5ebec7d5bd14f71427d1e84f3dd0314c0f7b2291e5b200ac8c7c3b92560405160405180910390a45b505b836004600085815260200190815260200160002060006101000a81548173ffffffffffffffffffffffffffffffffffffffff021916908373ffffffffffffffffffffffffffffffffffffffff16021790555050505050565b61213183838361233d565b6121e557600073ffffffffffffffffffffffffffffffffffffffff168373ffffffffffffffffffffffffffffffffffffffff16036121a657806040517f7e27328900000000000000000000000000000000000000000000000000000000815260040161219d91906126b9565b60405180910390fd5b81816040517f177e802f0000000000000000000000000000000000000000000000000000000081526004016121dc9291906131b8565b60405180910390fd5b505050565b600080600090507a184f03e93ff9f4daa797ed6e38ed64bf6a1f0100000000000000008310612248577a184f03e93ff9f4daa797ed6e38ed64bf6a1f010000000000000000838161223e5761223d613189565b5b0492506040810190505b6d04ee2d6d415b85acef81000000008310612285576d04ee2d6d415b85acef8100000000838161227b5761227a613189565b5b0492506020810190505b662386f26fc1000083106122b457662386f26fc1000083816122aa576122a9613189565b5b0492506010810190505b6305f5e10083106122dd576305f5e10083816122d3576122d2613189565b5b0492506008810190505b61271083106123025761271083816122f8576122f7613189565b5b0492506004810190505b60648310612325576064838161231b5761231a613189565b5b0492506002810190505b600a8310612334576001810190505b80915050919050565b60008073ffffffffffffffffffffffffffffffffffffffff168373ffffffffffffffffffffffffffffffffffffffff16141580156123f557508273ffffffffffffffffffffffffffffffffffffffff168473ffffffffffffffffffffffffffffffffffffffff1614806123b657506123b584846113fc565b5b806123f457508273ffffffffffffffffffffffffffffffffffffffff166123dc83611664565b73ffffffffffffffffffffffffffffffffffffffff16145b5b90509392505050565b6000604051905090565b600080fd5b600080fd5b60007fffffffff0000000000000000000000000000000000000000000000000000000082169050919050565b61244781612412565b811461245257600080fd5b50565b6000813590506124648161243e565b92915050565b6000602082840312156124805761247f612408565b5b600061248e84828501612455565b91505092915050565b60008115159050919050565b6124ac81612497565b82525050565b60006020820190506124c760008301846124a3565b92915050565b600081519050919050565b600082825260208201905092915050565b60005b838110156125075780820151818401526020810190506124ec565b60008484015250505050565b6000601f19601f8301169050919050565b600061252f826124cd565b61253981856124d8565b93506125498185602086016124e9565b61255281612513565b840191505092915050565b600060208201905081810360008301526125778184612524565b905092915050565b6000819050919050565b6125928161257f565b811461259d57600080fd5b50565b6000813590506125af81612589565b92915050565b6000602082840312156125cb576125ca612408565b5b60006125d9848285016125a0565b91505092915050565b600073ffffffffffffffffffffffffffffffffffffffff82169050919050565b600061260d826125e2565b9050919050565b61261d81612602565b82525050565b60006020820190506126386000830184612614565b92915050565b61264781612602565b811461265257600080fd5b50565b6000813590506126648161263e565b92915050565b6000806040838503121561268157612680612408565b5b600061268f85828601612655565b92505060206126a0858286016125a0565b9150509250929050565b6126b38161257f565b82525050565b60006020820190506126ce60008301846126aa565b92915050565b6000806000606084860312156126ed576126ec612408565b5b60006126fb86828701612655565b935050602061270c86828701612655565b925050604061271d868287016125a0565b9150509250925092565b600081519050919050565b600082825260208201905092915050565b6000819050602082019050919050565b61275c8161257f565b82525050565b600061276e8383612753565b60208301905092915050565b6000602082019050919050565b600061279282612727565b61279c8185612732565b93506127a783612743565b8060005b838110156127d85781516127bf8882612762565b97506127ca8361277a565b9250506001810190506127ab565b5085935050505092915050565b600060208201905081810360008301526127ff8184612787565b905092915050565b6000819050919050565b600061282c612827612822846125e2565b612807565b6125e2565b9050919050565b600061283e82612811565b9050919050565b600061285082612833565b9050919050565b61286081612845565b82525050565b600060208201905061287b6000830184612857565b92915050565b60006020828403121561289757612896612408565b5b60006128a584828501612655565b91505092915050565b600080604083850312156128c5576128c4612408565b5b60006128d3858286016125a0565b92505060206128e485828601612655565b9150509250929050565b6128f781612497565b811461290257600080fd5b50565b600081359050612914816128ee565b92915050565b6000806040838503121561293157612930612408565b5b600061293f85828601612655565b925050602061295085828601612905565b9150509250929050565b600080fd5b600080fd5b7f4e487b7100000000000000000000000000000000000000000000000000000000600052604160045260246000fd5b61299c82612513565b810181811067ffffffffffffffff821117156129bb576129ba612964565b5b80604052505050565b60006129ce6123fe565b90506129da8282612993565b919050565b600067ffffffffffffffff8211156129fa576129f9612964565b5b612a0382612513565b9050602081019050919050565b82818337600083830152505050565b6000612a32612a2d846129df565b6129c4565b905082815260208101848484011115612a4e57612a4d61295f565b5b612a59848285612a10565b509392505050565b600082601f830112612a7657612a7561295a565b5b8135612a86848260208601612a1f565b91505092915050565b60008060008060808587031215612aa957612aa8612408565b5b6000612ab787828801612655565b9450506020612ac887828801612655565b9350506040612ad9878288016125a0565b925050606085013567ffffffffffffffff811115612afa57612af961240d565b5b612b0687828801612a61565b91505092959194509250565b600067ffffffffffffffff82169050919050565b612b2f81612b12565b8114612b3a57600080fd5b50565b600081359050612b4c81612b26565b92915050565b600080600060608486031215612b6b57612b6a612408565b5b6000612b79868287016125a0565b9350506020612b8a86828701612655565b9250506040612b9b86828701612b3d565b9150509250925092565b60008060408385031215612bbc57612bbb612408565b5b6000612bca858286016125a0565b9250506020612bdb858286016125a0565b9150509250929050565b60008060408385031215612bfc57612bfb612408565b5b6000612c0a85828601612655565b9250506020612c1b85828601612655565b9150509250929050565b6000606082019050612c3a6000830186612614565b612c476020830185612614565b612c5460408301846126aa565b949350505050565b7f4e487b7100000000000000000000000000000000000000000000000000000000600052602260045260246000fd5b60006002820490506001821680612ca357607f821691505b602082108103612cb657612cb5612c5c565b5b50919050565b6000606082019050612cd16000830186612614565b612cde60208301856126aa565b612ceb6040830184612614565b949350505050565b7f4e487b7100000000000000000000000000000000000000000000000000000000600052601160045260246000fd5b6000612d2d8261257f565b91507fffffffffffffffffffffffffffffffffffffffffffffffffffffffffffffffff8203612d5f57612d5e612cf3565b5b600182019050919050565b7f546869732063617220646f65736e277420657869737400000000000000000000600082015250565b6000612da06016836124d8565b9150612dab82612d6a565b602082019050919050565b60006020820190508181036000830152612dcf81612d93565b9050919050565b7f496e73756666696369656e742066756e64732073656e74000000000000000000600082015250565b6000612e0c6017836124d8565b9150612e1782612dd6565b602082019050919050565b60006020820190508181036000830152612e3b81612dff565b9050919050565b600081905092915050565b6000612e58826124cd565b612e628185612e42565b9350612e728185602086016124e9565b80840191505092915050565b6000612e8a8285612e4d565b9150612e968284612e4d565b91508190509392505050565b612eab81612b12565b82525050565b6000602082019050612ec66000830184612ea2565b92915050565b7f546869732063617220686173206265656e20626f72726f776564000000000000600082015250565b6000612f02601a836124d8565b9150612f0d82612ecc565b602082019050919050565b60006020820190508181036000830152612f3181612ef5565b9050919050565b6000612f438261257f565b9150612f4e8361257f565b9250828202612f5c8161257f565b91508282048414831517612f7357612f72612cf3565b5b5092915050565b6000612f858261257f565b9150612f908361257f565b9250828201905080821115612fa857612fa7612cf3565b5b92915050565b600081519050612fbd81612589565b92915050565b600060208284031215612fd957612fd8612408565b5b6000612fe784828501612fae565b91505092915050565b600060808201905061300560008301876126aa565b6130126020830186612614565b61301f60408301856126aa565b61302c60608301846126aa565b95945050505050565b600081519050613044816128ee565b92915050565b6000602082840312156130605761305f612408565b5b600061306e84828501613035565b91505092915050565b7f4e487b7100000000000000000000000000000000000000000000000000000000600052603260045260246000fd5b600081519050919050565b600082825260208201905092915050565b60006130cd826130a6565b6130d781856130b1565b93506130e78185602086016124e9565b6130f081612513565b840191505092915050565b60006080820190506131106000830187612614565b61311d6020830186612614565b61312a60408301856126aa565b818103606083015261313c81846130c2565b905095945050505050565b6000815190506131568161243e565b92915050565b60006020828403121561317257613171612408565b5b600061318084828501613147565b91505092915050565b7f4e487b7100000000000000000000000000000000000000000000000000000000600052601260045260246000fd5b60006040820190506131cd6000830185612614565b6131da60208301846126aa565b939250505056fea26469706673582212201d9b95dfddd8f8a6f684eb895ac6f60d468371947a26b0262f22cbd513addaae64736f6c6343000814003360806040523480156200001157600080fd5b5060405162001639380380620016398339818101604052810190620000379190620001fa565b818181600390816200004a9190620004ca565b5080600490816200005c9190620004ca565b5050505050620005b1565b6000604051905090565b600080fd5b600080fd5b600080fd5b600080fd5b6000601f19601f8301169050919050565b7f4e487b7100000000000000000000000000000000000000000000000000000000600052604160045260246000fd5b620000d08262000085565b810181811067ffffffffffffffff82111715620000f257620000f162000096565b5b80604052505050565b60006200010762000067565b9050620001158282620000c5565b919050565b600067ffffffffffffffff82111562000138576200013762000096565b5b620001438262000085565b9050602081019050919050565b60005b838110156200017057808201518184015260208101905062000153565b60008484015250505050565b6000620001936200018d846200011a565b620000fb565b905082815260208101848484011115620001b257620001b162000080565b5b620001bf84828562000150565b509392505050565b600082601f830112620001df57620001de6200007b565b5b8151620001f18482602086016200017c565b91505092915050565b6000806040838503121562000214576200021362000071565b5b600083015167ffffffffffffffff81111562000235576200023462000076565b5b6200024385828601620001c7565b925050602083015167ffffffffffffffff81111562000267576200026662000076565b5b6200027585828601620001c7565b9150509250929050565b600081519050919050565b7f4e487b7100000000000000000000000000000000000000000000000000000000600052602260045260246000fd5b60006002820490506001821680620002d257607f821691505b602082108103620002e857620002e76200028a565b5b50919050565b60008190508160005260206000209050919050565b60006020601f8301049050919050565b600082821b905092915050565b600060088302620003527fffffffffffffffffffffffffffffffffffffffffffffffffffffffffffffffff8262000313565b6200035e868362000313565b95508019841693508086168417925050509392505050565b6000819050919050565b6000819050919050565b6000620003ab620003a56200039f8462000376565b62000380565b62000376565b9050919050565b6000819050919050565b620003c7836200038a565b620003df620003d682620003b2565b84845462000320565b825550505050565b600090565b620003f6620003e7565b62000403818484620003bc565b505050565b5b818110156200042b576200041f600082620003ec565b60018101905062000409565b5050565b601f8211156200047a576200044481620002ee565b6200044f8462000303565b810160208510156200045f578190505b620004776200046e8562000303565b83018262000408565b50505b505050565b600082821c905092915050565b60006200049f600019846008026200047f565b1980831691505092915050565b6000620004ba83836200048c565b9150826002028217905092915050565b620004d5826200027f565b67ffffffffffffffff811115620004f157620004f062000096565b5b620004fd8254620002b9565b6200050a8282856200042f565b600060209050601f8311600181146200054257600084156200052d578287015190505b620005398582620004ac565b865550620005a9565b601f1984166200055286620002ee565b60005b828110156200057c5784890151825560018201915060208501945060208101905062000555565b868310156200059c578489015162000598601f8916826200048c565b8355505b6001600288020188555050505b505050505050565b61107880620005c16000396000f3fe608060405234801561001057600080fd5b506004361061009e5760003560e01c80633884d635116100665780633884d6351461015d57806370a082311461016757806395d89b4114610197578063a9059cbb146101b5578063dd62ed3e146101e55761009e565b806306fdde03146100a3578063095ea7b3146100c157806318160ddd146100f157806323b872dd1461010f578063313ce5671461013f575b600080fd5b6100ab610215565b6040516100b89190610c3a565b60405180910390f35b6100db60048036038101906100d69190610cf5565b6102a7565b6040516100e89190610d50565b60405180910390f35b6100f96102ca565b6040516101069190610d7a565b60405180910390f35b61012960048036038101906101249190610d95565b6102d4565b6040516101369190610d50565b60405180910390f35b610147610303565b6040516101549190610e04565b60405180910390f35b61016561030c565b005b610181600480360381019061017c9190610e1f565b610406565b60405161018e9190610d7a565b60405180910390f35b61019f61044e565b6040516101ac9190610c3a565b60405180910390f35b6101cf60048036038101906101ca9190610cf5565b6104e0565b6040516101dc9190610d50565b60405180910390f35b6101ff60048036038101906101fa9190610e4c565b610503565b60405161020c9190610d7a565b60405180910390f35b60606003805461022490610ebb565b80601f016020809104026020016040519081016040528092919081815260200182805461025090610ebb565b801561029d5780601f106102725761010080835404028352916020019161029d565b820191906000526020600020905b81548152906001019060200180831161028057829003601f168201915b5050505050905090565b6000806102b261058a565b90506102bf818585610592565b600191505092915050565b6000600254905090565b6000806102df61058a565b90506102ec8582856105a4565b6102f7858585610638565b60019150509392505050565b60006012905090565b60001515600560003373ffffffffffffffffffffffffffffffffffffffff1673ffffffffffffffffffffffffffffffffffffffff16815260200190815260200160002060009054906101000a900460ff1615151461039f576040517f08c379a000000000000000000000000000000000000000000000000000000000815260040161039690610f5e565b60405180910390fd5b6103ac33620f424061072c565b6001600560003373ffffffffffffffffffffffffffffffffffffffff1673ffffffffffffffffffffffffffffffffffffffff16815260200190815260200160002060006101000a81548160ff021916908315150217905550565b60008060008373ffffffffffffffffffffffffffffffffffffffff1673ffffffffffffffffffffffffffffffffffffffff168152602001908152602001600020549050919050565b60606004805461045d90610ebb565b80601f016020809104026020016040519081016040528092919081815260200182805461048990610ebb565b80156104d65780601f106104ab576101008083540402835291602001916104d6565b820191906000526020600020905b8154815290600101906020018083116104b957829003601f168201915b5050505050905090565b6000806104eb61058a565b90506104f8818585610638565b600191505092915050565b6000600160008473ffffffffffffffffffffffffffffffffffffffff1673ffffffffffffffffffffffffffffffffffffffff16815260200190815260200160002060008373ffffffffffffffffffffffffffffffffffffffff1673ffffffffffffffffffffffffffffffffffffffff16815260200190815260200160002054905092915050565b600033905090565b61059f83838360016107ae565b505050565b60006105b08484610503565b90507fffffffffffffffffffffffffffffffffffffffffffffffffffffffffffffffff81146106325781811015610622578281836040517ffb8f41b200000000000000000000000000000000000000000000000000000000815260040161061993929190610f8d565b60405180910390fd5b610631848484840360006107ae565b5b50505050565b600073ffffffffffffffffffffffffffffffffffffffff168373ffffffffffffffffffffffffffffffffffffffff16036106aa5760006040517f96c6fd1e0000000000000000000000000000000000000000000000000000000081526004016106a19190610fc4565b60405180910390fd5b600073ffffffffffffffffffffffffffffffffffffffff168273ffffffffffffffffffffffffffffffffffffffff160361071c5760006040517fec442f050000000000000000000000000000000000000000000000000000000081526004016107139190610fc4565b60405180910390fd5b610727838383610985565b505050565b600073ffffffffffffffffffffffffffffffffffffffff168273ffffffffffffffffffffffffffffffffffffffff160361079e5760006040517fec442f050000000000000000000000000000000000000000000000000000000081526004016107959190610fc4565b60405180910390fd5b6107aa60008383610985565b5050565b600073ffffffffffffffffffffffffffffffffffffffff168473ffffffffffffffffffffffffffffffffffffffff16036108205760006040517fe602df050000000000000000000000000000000000000000000000000000000081526004016108179190610fc4565b60405180910390fd5b600073ffffffffffffffffffffffffffffffffffffffff168373ffffffffffffffffffffffffffffffffffffffff16036108925760006040517f94280d620000000000000000000000000000000000000000000000000000000081526004016108899190610fc4565b60405180910390fd5b81600160008673ffffffffffffffffffffffffffffffffffffffff1673ffffffffffffffffffffffffffffffffffffffff16815260200190815260200160002060008573ffffffffffffffffffffffffffffffffffffffff1673ffffffffffffffffffffffffffffffffffffffff16815260200190815260200160002081905550801561097f578273ffffffffffffffffffffffffffffffffffffffff168473ffffffffffffffffffffffffffffffffffffffff167f8c5be1e5ebec7d5bd14f71427d1e84f3dd0314c0f7b2291e5b200ac8c7c3b925846040516109769190610d7a565b60405180910390a35b50505050565b600073ffffffffffffffffffffffffffffffffffffffff168373ffffffffffffffffffffffffffffffffffffffff16036109d75780600260008282546109cb919061100e565b92505081905550610aaa565b60008060008573ffffffffffffffffffffffffffffffffffffffff1673ffffffffffffffffffffffffffffffffffffffff16815260200190815260200160002054905081811015610a63578381836040517fe450d38c000000000000000000000000000000000000000000000000000000008152600401610a5a93929190610f8d565b60405180910390fd5b8181036000808673ffffffffffffffffffffffffffffffffffffffff1673ffffffffffffffffffffffffffffffffffffffff16815260200190815260200160002081905550505b600073ffffffffffffffffffffffffffffffffffffffff168273ffffffffffffffffffffffffffffffffffffffff1603610af35780600260008282540392505081905550610b40565b806000808473ffffffffffffffffffffffffffffffffffffffff1673ffffffffffffffffffffffffffffffffffffffff168152602001908152602001600020600082825401925050819055505b8173ffffffffffffffffffffffffffffffffffffffff168373ffffffffffffffffffffffffffffffffffffffff167fddf252ad1be2c89b69c2b068fc378daa952ba7f163c4a11628f55a4df523b3ef83604051610b9d9190610d7a565b60405180910390a3505050565b600081519050919050565b600082825260208201905092915050565b60005b83811015610be4578082015181840152602081019050610bc9565b60008484015250505050565b6000601f19601f8301169050919050565b6000610c0c82610baa565b610c168185610bb5565b9350610c26818560208601610bc6565b610c2f81610bf0565b840191505092915050565b60006020820190508181036000830152610c548184610c01565b905092915050565b600080fd5b600073ffffffffffffffffffffffffffffffffffffffff82169050919050565b6000610c8c82610c61565b9050919050565b610c9c81610c81565b8114610ca757600080fd5b50565b600081359050610cb981610c93565b92915050565b6000819050919050565b610cd281610cbf565b8114610cdd57600080fd5b50565b600081359050610cef81610cc9565b92915050565b60008060408385031215610d0c57610d0b610c5c565b5b6000610d1a85828601610caa565b9250506020610d2b85828601610ce0565b9150509250929050565b60008115159050919050565b610d4a81610d35565b82525050565b6000602082019050610d656000830184610d41565b92915050565b610d7481610cbf565b82525050565b6000602082019050610d8f6000830184610d6b565b92915050565b600080600060608486031215610dae57610dad610c5c565b5b6000610dbc86828701610caa565b9350506020610dcd86828701610caa565b9250506040610dde86828701610ce0565b9150509250925092565b600060ff82169050919050565b610dfe81610de8565b82525050565b6000602082019050610e196000830184610df5565b92915050565b600060208284031215610e3557610e34610c5c565b5b6000610e4384828501610caa565b91505092915050565b60008060408385031215610e6357610e62610c5c565b5b6000610e7185828601610caa565b9250506020610e8285828601610caa565b9150509250929050565b7f4e487b7100000000000000000000000000000000000000000000000000000000600052602260045260246000fd5b60006002820490506001821680610ed357607f821691505b602082108103610ee657610ee5610e8c565b5b50919050565b7f5468697320757365722068617320636c61696d65642061697264726f7020616c60008201527f7265616479000000000000000000000000000000000000000000000000000000602082015250565b6000610f48602583610bb5565b9150610f5382610eec565b604082019050919050565b60006020820190508181036000830152610f7781610f3b565b9050919050565b610f8781610c81565b82525050565b6000606082019050610fa26000830186610f7e565b610faf6020830185610d6b565b610fbc6040830184610d6b565b949350505050565b6000602082019050610fd96000830184610f7e565b92915050565b7f4e487b7100000000000000000000000000000000000000000000000000000000600052601160045260246000fd5b600061101982610cbf565b915061102483610cbf565b925082820190508082111561103c5761103b610fdf565b5b9291505056fea2646970667358221220904173fc091388efa48a19fafa1c9fe1fe44074816797ef62efdae0addb32e7264736f6c63430008140033",
  "linkReferences": {},
  "deployedLinkReferences": {}
}